{
  "contractName": "CrowdFunding",
  "abi": [
    {
      "inputs": [
        {
          "internalType": "uint256",
          "name": "_target",
          "type": "uint256"
        },
        {
          "internalType": "uint256",
          "name": "_deadline",
          "type": "uint256"
        }
      ],
      "stateMutability": "nonpayable",
      "type": "constructor"
    },
    {
      "inputs": [
        {
          "internalType": "address",
          "name": "",
          "type": "address"
        }
      ],
      "name": "contributor",
      "outputs": [
        {
          "internalType": "uint256",
          "name": "",
          "type": "uint256"
        }
      ],
      "stateMutability": "view",
      "type": "function"
    },
    {
      "inputs": [],
      "name": "deadline",
      "outputs": [
        {
          "internalType": "uint256",
          "name": "",
          "type": "uint256"
        }
      ],
      "stateMutability": "view",
      "type": "function"
    },
    {
      "inputs": [],
      "name": "manager",
      "outputs": [
        {
          "internalType": "address",
          "name": "",
          "type": "address"
        }
      ],
      "stateMutability": "view",
      "type": "function"
    },
    {
      "inputs": [],
      "name": "minContribution",
      "outputs": [
        {
          "internalType": "uint256",
          "name": "",
          "type": "uint256"
        }
      ],
      "stateMutability": "view",
      "type": "function"
    },
    {
      "inputs": [],
      "name": "noOfContibutors",
      "outputs": [
        {
          "internalType": "uint256",
          "name": "",
          "type": "uint256"
        }
      ],
      "stateMutability": "view",
      "type": "function"
    },
    {
      "inputs": [],
      "name": "numRequest",
      "outputs": [
        {
          "internalType": "uint256",
          "name": "",
          "type": "uint256"
        }
      ],
      "stateMutability": "view",
      "type": "function"
    },
    {
      "inputs": [],
      "name": "raisedAmount",
      "outputs": [
        {
          "internalType": "uint256",
          "name": "",
          "type": "uint256"
        }
      ],
      "stateMutability": "view",
      "type": "function"
    },
    {
      "inputs": [
        {
          "internalType": "uint256",
          "name": "",
          "type": "uint256"
        }
      ],
      "name": "requests",
      "outputs": [
        {
          "internalType": "string",
          "name": "description",
          "type": "string"
        },
        {
          "internalType": "address payable",
          "name": "recipient",
          "type": "address"
        },
        {
          "internalType": "uint256",
          "name": "value",
          "type": "uint256"
        },
        {
          "internalType": "bool",
          "name": "completed",
          "type": "bool"
        },
        {
          "internalType": "uint256",
          "name": "noOfVoters",
          "type": "uint256"
        }
      ],
      "stateMutability": "view",
      "type": "function"
    },
    {
      "inputs": [],
      "name": "target",
      "outputs": [
        {
          "internalType": "uint256",
          "name": "",
          "type": "uint256"
        }
      ],
      "stateMutability": "view",
      "type": "function"
    },
    {
      "inputs": [],
      "name": "sendEth",
      "outputs": [],
      "stateMutability": "payable",
      "type": "function"
    },
    {
      "inputs": [],
      "name": "getContractBalance",
      "outputs": [
        {
          "internalType": "uint256",
          "name": "",
          "type": "uint256"
        }
      ],
      "stateMutability": "view",
      "type": "function"
    },
    {
      "inputs": [],
      "name": "refund",
      "outputs": [],
      "stateMutability": "nonpayable",
      "type": "function"
    },
    {
      "inputs": [
        {
          "internalType": "string",
          "name": "_description",
          "type": "string"
        },
        {
          "internalType": "address payable",
          "name": "_recipient",
          "type": "address"
        },
        {
          "internalType": "uint256",
          "name": "_value",
          "type": "uint256"
        }
      ],
      "name": "createRequest",
      "outputs": [],
      "stateMutability": "nonpayable",
      "type": "function"
    },
    {
      "inputs": [
        {
          "internalType": "uint256",
          "name": "request_no",
          "type": "uint256"
        }
      ],
      "name": "requestsInfo",
      "outputs": [
        {
          "internalType": "string",
          "name": "",
          "type": "string"
        },
        {
          "internalType": "uint256",
          "name": "",
          "type": "uint256"
        }
      ],
      "stateMutability": "view",
      "type": "function"
    },
    {
      "inputs": [
        {
          "internalType": "uint256",
          "name": "request_no",
          "type": "uint256"
        }
      ],
      "name": "voteRequest",
      "outputs": [],
      "stateMutability": "nonpayable",
      "type": "function"
    },
    {
      "inputs": [
        {
          "internalType": "uint256",
          "name": "request_no",
          "type": "uint256"
        }
      ],
      "name": "makePayment",
      "outputs": [],
      "stateMutability": "nonpayable",
      "type": "function"
    }
  ],
  "bytecode": "0x60806040523480156200001157600080fd5b5060405162001b5f38038062001b5f8339818101604052810190620000379190620000e3565b8160048190555080426200004c919062000159565b600381905550606460028190555033600160006101000a81548173ffffffffffffffffffffffffffffffffffffffff021916908373ffffffffffffffffffffffffffffffffffffffff160217905550505062000194565b600080fd5b6000819050919050565b620000bd81620000a8565b8114620000c957600080fd5b50565b600081519050620000dd81620000b2565b92915050565b60008060408385031215620000fd57620000fc620000a3565b5b60006200010d85828601620000cc565b92505060206200012085828601620000cc565b9150509250929050565b7f4e487b7100000000000000000000000000000000000000000000000000000000600052601160045260246000fd5b60006200016682620000a8565b91506200017383620000a8565b92508282019050808211156200018e576200018d6200012a565b5b92915050565b6119bb80620001a46000396000f3fe6080604052600436106100f35760003560e01c80636f9fb98a1161008a578063b1b1643111610059578063b1b16431146102ea578063c59ee1dc14610315578063ceb3560514610340578063d4b839921461037d576100f3565b80636f9fb98a1461022857806381d12c5814610253578063aaffadf314610294578063abf140b4146102bf576100f3565b80634cb6f4a5116100c65780634cb6f4a5146101815780635114cb52146101aa578063590e1ae3146101d357806361d34d42146101ea576100f3565b806306e99fef146100f85780631b16bb5c1461010257806329dcb0cf1461012b578063481c6a7514610156575b600080fd5b6101006103a8565b005b34801561010e57600080fd5b5061012960048036038101906101249190610ef6565b610500565b005b34801561013757600080fd5b5061014061064c565b60405161014d9190610f74565b60405180910390f35b34801561016257600080fd5b5061016b610652565b6040516101789190610fb0565b60405180910390f35b34801561018d57600080fd5b506101a860048036038101906101a39190610fcb565b610678565b005b3480156101b657600080fd5b506101d160048036038101906101cc9190610fcb565b61081d565b005b3480156101df57600080fd5b506101e8610981565b005b3480156101f657600080fd5b50610211600480360381019061020c9190610fcb565b610b26565b60405161021f929190611077565b60405180910390f35b34801561023457600080fd5b5061023d610bdf565b60405161024a9190610f74565b60405180910390f35b34801561025f57600080fd5b5061027a60048036038101906102759190610fcb565b610be7565b60405161028b9594939291906110d1565b60405180910390f35b3480156102a057600080fd5b506102a9610cd2565b6040516102b69190610f74565b60405180910390f35b3480156102cb57600080fd5b506102d4610cd8565b6040516102e19190610f74565b60405180910390f35b3480156102f657600080fd5b506102ff610cde565b60405161030c9190610f74565b60405180910390f35b34801561032157600080fd5b5061032a610ce4565b6040516103379190610f74565b60405180910390f35b34801561034c57600080fd5b5061036760048036038101906103629190611157565b610cea565b6040516103749190610f74565b60405180910390f35b34801561038957600080fd5b50610392610d02565b60405161039f9190610f74565b60405180910390f35b60035442106103ec576040517f08c379a00000000000000000000000000000000000000000000000000000000081526004016103e3906111d0565b60405180910390fd5b600254341015610431576040517f08c379a00000000000000000000000000000000000000000000000000000000081526004016104289061123c565b60405180910390fd5b60008060003373ffffffffffffffffffffffffffffffffffffffff1673ffffffffffffffffffffffffffffffffffffffff1681526020019081526020016000205403610490576006600081548092919061048a9061128b565b91905055505b346000803373ffffffffffffffffffffffffffffffffffffffff1673ffffffffffffffffffffffffffffffffffffffff16815260200190815260200160002060008282546104de91906112d3565b9250508190555034600560008282546104f791906112d3565b92505081905550565b600160009054906101000a900473ffffffffffffffffffffffffffffffffffffffff1673ffffffffffffffffffffffffffffffffffffffff163373ffffffffffffffffffffffffffffffffffffffff1614610590576040517f08c379a000000000000000000000000000000000000000000000000000000000815260040161058790611379565b60405180910390fd5b60006007600060085481526020019081526020016000209050600860008154809291906105bc9061128b565b9190505550838160000190816105d291906115a5565b50828160010160006101000a81548173ffffffffffffffffffffffffffffffffffffffff021916908373ffffffffffffffffffffffffffffffffffffffff1602179055508181600201819055506000816004018190555060008160030160006101000a81548160ff02191690831515021790555050505050565b60035481565b600160009054906101000a900473ffffffffffffffffffffffffffffffffffffffff1681565b60008060003373ffffffffffffffffffffffffffffffffffffffff1673ffffffffffffffffffffffffffffffffffffffff16815260200190815260200160002054116106f9576040517f08c379a00000000000000000000000000000000000000000000000000000000081526004016106f0906116c3565b60405180910390fd5b6000600760008381526020019081526020016000209050600015158160050160003373ffffffffffffffffffffffffffffffffffffffff1673ffffffffffffffffffffffffffffffffffffffff16815260200190815260200160002060009054906101000a900460ff161515146107a5576040517f08c379a000000000000000000000000000000000000000000000000000000000815260040161079c9061172f565b60405180910390fd5b60018160050160003373ffffffffffffffffffffffffffffffffffffffff1673ffffffffffffffffffffffffffffffffffffffff16815260200190815260200160002060006101000a81548160ff0219169083151502179055508060040160008154809291906108149061128b565b91905055505050565b600454600554101561082e57600080fd5b6000600760008381526020019081526020016000209050600015158160030160009054906101000a900460ff1615151461089d576040517f08c379a0000000000000000000000000000000000000000000000000000000008152600401610894906117c1565b60405180910390fd5b60026006546108ac9190611810565b8160040154116108f1576040517f08c379a00000000000000000000000000000000000000000000000000000000081526004016108e89061188d565b60405180910390fd5b8060010160009054906101000a900473ffffffffffffffffffffffffffffffffffffffff1673ffffffffffffffffffffffffffffffffffffffff166108fc82600201549081150290604051600060405180830381858888f1935050505015801561095f573d6000803e3d6000fd5b5060018160030160006101000a81548160ff0219169083151502179055505050565b600354421180156109955750600454600554105b6109d4576040517f08c379a00000000000000000000000000000000000000000000000000000000081526004016109cb906118f9565b60405180910390fd5b60008060003373ffffffffffffffffffffffffffffffffffffffff1673ffffffffffffffffffffffffffffffffffffffff1681526020019081526020016000205411610a55576040517f08c379a0000000000000000000000000000000000000000000000000000000008152600401610a4c90611965565b60405180910390fd5b60003390508073ffffffffffffffffffffffffffffffffffffffff166108fc6000803373ffffffffffffffffffffffffffffffffffffffff1673ffffffffffffffffffffffffffffffffffffffff168152602001908152602001600020549081150290604051600060405180830381858888f19350505050158015610ade573d6000803e3d6000fd5b5060008060003373ffffffffffffffffffffffffffffffffffffffff1673ffffffffffffffffffffffffffffffffffffffff1681526020019081526020016000208190555050565b6060600080600760008581526020019081526020016000209050806000018160020154818054610b55906113c8565b80601f0160208091040260200160405190810160405280929190818152602001828054610b81906113c8565b8015610bce5780601f10610ba357610100808354040283529160200191610bce565b820191906000526020600020905b815481529060010190602001808311610bb157829003601f168201915b505050505091509250925050915091565b600047905090565b6007602052806000526040600020600091509050806000018054610c0a906113c8565b80601f0160208091040260200160405190810160405280929190818152602001828054610c36906113c8565b8015610c835780601f10610c5857610100808354040283529160200191610c83565b820191906000526020600020905b815481529060010190602001808311610c6657829003601f168201915b5050505050908060010160009054906101000a900473ffffffffffffffffffffffffffffffffffffffff16908060020154908060030160009054906101000a900460ff16908060040154905085565b60025481565b60065481565b60085481565b60055481565b60006020528060005260406000206000915090505481565b60045481565b6000604051905090565b600080fd5b600080fd5b600080fd5b600080fd5b6000601f19601f8301169050919050565b7f4e487b7100000000000000000000000000000000000000000000000000000000600052604160045260246000fd5b610d6f82610d26565b810181811067ffffffffffffffff82111715610d8e57610d8d610d37565b5b80604052505050565b6000610da1610d08565b9050610dad8282610d66565b919050565b600067ffffffffffffffff821115610dcd57610dcc610d37565b5b610dd682610d26565b9050602081019050919050565b82818337600083830152505050565b6000610e05610e0084610db2565b610d97565b905082815260208101848484011115610e2157610e20610d21565b5b610e2c848285610de3565b509392505050565b600082601f830112610e4957610e48610d1c565b5b8135610e59848260208601610df2565b91505092915050565b600073ffffffffffffffffffffffffffffffffffffffff82169050919050565b6000610e8d82610e62565b9050919050565b610e9d81610e82565b8114610ea857600080fd5b50565b600081359050610eba81610e94565b92915050565b6000819050919050565b610ed381610ec0565b8114610ede57600080fd5b50565b600081359050610ef081610eca565b92915050565b600080600060608486031215610f0f57610f0e610d12565b5b600084013567ffffffffffffffff811115610f2d57610f2c610d17565b5b610f3986828701610e34565b9350506020610f4a86828701610eab565b9250506040610f5b86828701610ee1565b9150509250925092565b610f6e81610ec0565b82525050565b6000602082019050610f896000830184610f65565b92915050565b6000610f9a82610e62565b9050919050565b610faa81610f8f565b82525050565b6000602082019050610fc56000830184610fa1565b92915050565b600060208284031215610fe157610fe0610d12565b5b6000610fef84828501610ee1565b91505092915050565b600081519050919050565b600082825260208201905092915050565b60005b83811015611032578082015181840152602081019050611017565b60008484015250505050565b600061104982610ff8565b6110538185611003565b9350611063818560208601611014565b61106c81610d26565b840191505092915050565b60006040820190508181036000830152611091818561103e565b90506110a06020830184610f65565b9392505050565b6110b081610e82565b82525050565b60008115159050919050565b6110cb816110b6565b82525050565b600060a08201905081810360008301526110eb818861103e565b90506110fa60208301876110a7565b6111076040830186610f65565b61111460608301856110c2565b6111216080830184610f65565b9695505050505050565b61113481610f8f565b811461113f57600080fd5b50565b6000813590506111518161112b565b92915050565b60006020828403121561116d5761116c610d12565b5b600061117b84828501611142565b91505092915050565b7f446561646c696e652069732063726f7373656420000000000000000000000000600082015250565b60006111ba601483611003565b91506111c582611184565b602082019050919050565b600060208201905081810360008301526111e9816111ad565b9050919050565b7f4d696e696d756d20636f6e747269627574696f6e206973203130302077656920600082015250565b6000611226602083611003565b9150611231826111f0565b602082019050919050565b6000602082019050818103600083015261125581611219565b9050919050565b7f4e487b7100000000000000000000000000000000000000000000000000000000600052601160045260246000fd5b600061129682610ec0565b91507fffffffffffffffffffffffffffffffffffffffffffffffffffffffffffffffff82036112c8576112c761125c565b5b600182019050919050565b60006112de82610ec0565b91506112e983610ec0565b92508282019050808211156113015761130061125c565b5b92915050565b7f4f6e6c79206d616e616765722063616e2063616c6c20746869732066756e637460008201527f696f6e0000000000000000000000000000000000000000000000000000000000602082015250565b6000611363602383611003565b915061136e82611307565b604082019050919050565b6000602082019050818103600083015261139281611356565b9050919050565b7f4e487b7100000000000000000000000000000000000000000000000000000000600052602260045260246000fd5b600060028204905060018216806113e057607f821691505b6020821081036113f3576113f2611399565b5b50919050565b60008190508160005260206000209050919050565b60006020601f8301049050919050565b600082821b905092915050565b60006008830261145b7fffffffffffffffffffffffffffffffffffffffffffffffffffffffffffffffff8261141e565b611465868361141e565b95508019841693508086168417925050509392505050565b6000819050919050565b60006114a261149d61149884610ec0565b61147d565b610ec0565b9050919050565b6000819050919050565b6114bc83611487565b6114d06114c8826114a9565b84845461142b565b825550505050565b600090565b6114e56114d8565b6114f08184846114b3565b505050565b5b81811015611514576115096000826114dd565b6001810190506114f6565b5050565b601f8211156115595761152a816113f9565b6115338461140e565b81016020851015611542578190505b61155661154e8561140e565b8301826114f5565b50505b505050565b600082821c905092915050565b600061157c6000198460080261155e565b1980831691505092915050565b6000611595838361156b565b9150826002028217905092915050565b6115ae82610ff8565b67ffffffffffffffff8111156115c7576115c6610d37565b5b6115d182546113c8565b6115dc828285611518565b600060209050601f83116001811461160f57600084156115fd578287015190505b6116078582611589565b86555061166f565b601f19841661161d866113f9565b60005b8281101561164557848901518255600182019150602085019450602081019050611620565b86831015611662578489015161165e601f89168261156b565b8355505b6001600288020188555050505b505050505050565b7f596f75206d757374206d65206120636f6e7472696275746f7200000000000000600082015250565b60006116ad601983611003565b91506116b882611677565b602082019050919050565b600060208201905081810360008301526116dc816116a0565b9050919050565b7f596f75206861766520616c726561647920766f74656400000000000000000000600082015250565b6000611719601683611003565b9150611724826116e3565b602082019050919050565b600060208201905081810360008301526117488161170c565b9050919050565b7f54686520726571756573742068617320616c7265616479206265656e206d616460008201527f6500000000000000000000000000000000000000000000000000000000000000602082015250565b60006117ab602183611003565b91506117b68261174f565b604082019050919050565b600060208201905081810360008301526117da8161179e565b9050919050565b7f4e487b7100000000000000000000000000000000000000000000000000000000600052601260045260246000fd5b600061181b82610ec0565b915061182683610ec0565b925082611836576118356117e1565b5b828204905092915050565b7f4e6f206d616a6f72697479000000000000000000000000000000000000000000600082015250565b6000611877600b83611003565b915061188282611841565b602082019050919050565b600060208201905081810360008301526118a68161186a565b9050919050565b7f456c696769626c6520666f7220726566756e6400000000000000000000000000600082015250565b60006118e3601383611003565b91506118ee826118ad565b602082019050919050565b60006020820190508181036000830152611912816118d6565b9050919050565b7f596f7520617265206e6f74206120636f6e7472696275746f7200000000000000600082015250565b600061194f601983611003565b915061195a82611919565b602082019050919050565b6000602082019050818103600083015261197e81611942565b905091905056fea2646970667358221220eb47f8fe027482a3450caf0502f30895d5c8c5e713b9acb635b5917cba89022a64736f6c63430008130033",
  "immutableReferences": {},
  "source": "// SPDX-License-Identifier: GPL-3.0\r\n\r\npragma solidity >=0.8.2 <0.9.0;\r\n\r\ncontract CrowdFunding{\r\n\r\n    mapping(address=>uint) public contributor; //contributor address => amount\r\n    address public manager;\r\n    uint public minContribution;\r\n    uint public deadline;\r\n    uint public target;\r\n    uint public raisedAmount;\r\n    uint public noOfContibutors;\r\n\r\n    struct Request{        //request by a organization asking money\r\n        string description;  //name of organization\r\n        address payable recipient; //address of the organization owner\r\n        uint value;\r\n        bool completed;\r\n        uint noOfVoters;\r\n        mapping(address=>bool) voters;\r\n    }\r\n\r\n    mapping(uint=>Request) public requests;\r\n\r\n    uint public numRequest;\r\n\r\n    constructor(uint _target,uint _deadline){\r\n        target=_target;\r\n        deadline=block.timestamp+_deadline;\r\n        minContribution=100 wei;\r\n        manager=msg.sender;\r\n    }\r\n\r\n    function sendEth() public payable{\r\n        require(block.timestamp < deadline,\"Deadline is crossed \");\r\n        require(msg.value >= minContribution,\"Minimum contribution is 100 wei \");\r\n        if(contributor[msg.sender] == 0)\r\n        {\r\n            noOfContibutors++;\r\n        }\r\n        contributor[msg.sender]+=msg.value;\r\n        raisedAmount+=msg.value;\r\n    }\r\n\r\n    function getContractBalance() public view returns(uint){\r\n        return address(this).balance;\r\n    }\r\n\r\n    function refund() public{\r\n        require(block.timestamp > deadline && raisedAmount<target,\"Eligible for refund\");\r\n        require(contributor[msg.sender]>0,\"You are not a contributor\");\r\n        address payable user=payable(msg.sender);\r\n        user.transfer(contributor[msg.sender]);\r\n        contributor[msg.sender]=0;\r\n    }\r\n\r\n    modifier onlyManager(){\r\n        require(msg.sender == manager,\"Only manager can call this function\");\r\n        _;\r\n    }\r\n\r\n    function createRequest(string memory _description,address payable _recipient,uint _value) public onlyManager{\r\n        Request storage newRequest = requests[numRequest];\r\n        numRequest++;\r\n        newRequest.description=_description;\r\n        newRequest.recipient=_recipient;\r\n        newRequest.value=_value;\r\n        newRequest.noOfVoters=0;\r\n        newRequest.completed=false;\r\n    }\r\n\r\n    function requestsInfo(uint request_no) public view returns(string memory,uint){\r\n        Request storage checkRequest = requests[request_no];\r\n        return(checkRequest.description,checkRequest.value);\r\n    }\r\n\r\n    function voteRequest(uint request_no) public{\r\n        require(contributor[msg.sender] > 0,\"You must me a contributor\");\r\n        Request storage thisRequest = requests[request_no];\r\n        require(thisRequest.voters[msg.sender]==false,\"You have already voted\");\r\n        thisRequest.voters[msg.sender]=true;\r\n        thisRequest.noOfVoters++;\r\n    }\r\n\r\n    function makePayment(uint request_no) public{\r\n        require(raisedAmount >= target);\r\n        Request storage thisRequest = requests[request_no];\r\n        require(thisRequest.completed == false,\"The request has already been made\");\r\n        require(thisRequest.noOfVoters > noOfContibutors/2,\"No majority\");\r\n        thisRequest.recipient.transfer(thisRequest.value);//transfer the money to the recipient address\r\n        thisRequest.completed = true;\r\n    }\r\n}",
  "sourcePath": "C:\\WEB3\\CrowdFunding\\contracts\\cf.sol",
  "compiler": {
    "name": "solc",
    "version": "0.8.19+commit.7dd6d404.Emscripten.clang"
  },
  "schemaVersion": "3.4.13",
  "updatedAt": "2023-06-03T14:08:26.632Z",
  "devdoc": {
    "kind": "dev",
    "methods": {},
    "version": 1
  },
  "userdoc": {
    "kind": "user",
    "methods": {},
    "version": 1
  }
}